{
  "contractName": "DataStorage",
  "abi": [
    {
      "inputs": [],
      "stateMutability": "nonpayable",
      "type": "constructor"
    },
    {
      "inputs": [
        {
          "internalType": "address",
          "name": "owner",
          "type": "address"
        }
      ],
      "name": "OwnableInvalidOwner",
      "type": "error"
    },
    {
      "inputs": [
        {
          "internalType": "address",
          "name": "account",
          "type": "address"
        }
      ],
      "name": "OwnableUnauthorizedAccount",
      "type": "error"
    },
    {
      "inputs": [],
      "name": "ReentrancyGuardReentrantCall",
      "type": "error"
    },
    {
      "anonymous": false,
      "inputs": [
        {
          "indexed": true,
          "internalType": "uint256",
          "name": "recordId",
          "type": "uint256"
        },
        {
          "indexed": true,
          "internalType": "address",
          "name": "sender",
          "type": "address"
        },
        {
          "indexed": true,
          "internalType": "address",
          "name": "recipient",
          "type": "address"
        },
        {
          "indexed": false,
          "internalType": "uint256",
          "name": "amount",
          "type": "uint256"
        },
        {
          "indexed": false,
          "internalType": "string",
          "name": "message",
          "type": "string"
        },
        {
          "indexed": false,
          "internalType": "bytes32",
          "name": "dataHash",
          "type": "bytes32"
        },
        {
          "indexed": false,
          "internalType": "uint256",
          "name": "timestamp",
          "type": "uint256"
        }
      ],
      "name": "DataStored",
      "type": "event"
    },
    {
      "anonymous": false,
      "inputs": [
        {
          "indexed": true,
          "internalType": "uint256",
          "name": "recordId",
          "type": "uint256"
        },
        {
          "indexed": true,
          "internalType": "address",
          "name": "updater",
          "type": "address"
        },
        {
          "indexed": false,
          "internalType": "string",
          "name": "newMessage",
          "type": "string"
        },
        {
          "indexed": false,
          "internalType": "uint256",
          "name": "timestamp",
          "type": "uint256"
        }
      ],
      "name": "DataUpdated",
      "type": "event"
    },
    {
      "anonymous": false,
      "inputs": [
        {
          "indexed": true,
          "internalType": "address",
          "name": "sender",
          "type": "address"
        },
        {
          "indexed": false,
          "internalType": "uint256",
          "name": "amount",
          "type": "uint256"
        },
        {
          "indexed": false,
          "internalType": "uint256",
          "name": "timestamp",
          "type": "uint256"
        }
      ],
      "name": "EtherReceived",
      "type": "event"
    },
    {
      "anonymous": false,
      "inputs": [
        {
          "indexed": true,
          "internalType": "address",
          "name": "previousOwner",
          "type": "address"
        },
        {
          "indexed": true,
          "internalType": "address",
          "name": "newOwner",
          "type": "address"
        }
      ],
      "name": "OwnershipTransferred",
      "type": "event"
    },
    {
      "inputs": [
        {
          "internalType": "bytes32",
          "name": "",
          "type": "bytes32"
        }
      ],
      "name": "dataHashes",
      "outputs": [
        {
          "internalType": "bool",
          "name": "",
          "type": "bool"
        }
      ],
      "stateMutability": "view",
      "type": "function"
    },
    {
      "inputs": [],
      "name": "owner",
      "outputs": [
        {
          "internalType": "address",
          "name": "",
          "type": "address"
        }
      ],
      "stateMutability": "view",
      "type": "function"
    },
    {
      "inputs": [
        {
          "internalType": "uint256",
          "name": "",
          "type": "uint256"
        }
      ],
      "name": "records",
      "outputs": [
        {
          "internalType": "uint256",
          "name": "id",
          "type": "uint256"
        },
        {
          "internalType": "address",
          "name": "sender",
          "type": "address"
        },
        {
          "internalType": "address",
          "name": "recipient",
          "type": "address"
        },
        {
          "internalType": "uint256",
          "name": "amount",
          "type": "uint256"
        },
        {
          "internalType": "string",
          "name": "message",
          "type": "string"
        },
        {
          "internalType": "uint256",
          "name": "timestamp",
          "type": "uint256"
        },
        {
          "internalType": "bytes32",
          "name": "dataHash",
          "type": "bytes32"
        }
      ],
      "stateMutability": "view",
      "type": "function"
    },
    {
      "inputs": [],
      "name": "renounceOwnership",
      "outputs": [],
      "stateMutability": "nonpayable",
      "type": "function"
    },
    {
      "inputs": [
        {
          "internalType": "address",
          "name": "newOwner",
          "type": "address"
        }
      ],
      "name": "transferOwnership",
      "outputs": [],
      "stateMutability": "nonpayable",
      "type": "function"
    },
    {
      "inputs": [
        {
          "internalType": "address",
          "name": "",
          "type": "address"
        },
        {
          "internalType": "uint256",
          "name": "",
          "type": "uint256"
        }
      ],
      "name": "userRecords",
      "outputs": [
        {
          "internalType": "uint256",
          "name": "",
          "type": "uint256"
        }
      ],
      "stateMutability": "view",
      "type": "function"
    },
    {
      "stateMutability": "payable",
      "type": "receive"
    },
    {
      "inputs": [
        {
          "internalType": "address",
          "name": "_recipient",
          "type": "address"
        },
        {
          "internalType": "string",
          "name": "_message",
          "type": "string"
        }
      ],
      "name": "storeData",
      "outputs": [],
      "stateMutability": "payable",
      "type": "function"
    },
    {
      "inputs": [
        {
          "internalType": "address[]",
          "name": "_recipients",
          "type": "address[]"
        },
        {
          "internalType": "uint256[]",
          "name": "_amounts",
          "type": "uint256[]"
        },
        {
          "internalType": "string[]",
          "name": "_messages",
          "type": "string[]"
        }
      ],
      "name": "batchStoreData",
      "outputs": [],
      "stateMutability": "payable",
      "type": "function"
    },
    {
      "inputs": [
        {
          "internalType": "uint256",
          "name": "_recordId",
          "type": "uint256"
        },
        {
          "internalType": "string",
          "name": "_newMessage",
          "type": "string"
        }
      ],
      "name": "updateMessage",
      "outputs": [],
      "stateMutability": "nonpayable",
      "type": "function"
    },
    {
      "inputs": [
        {
          "internalType": "uint256",
          "name": "_recordId",
          "type": "uint256"
        }
      ],
      "name": "getRecord",
      "outputs": [
        {
          "components": [
            {
              "internalType": "uint256",
              "name": "id",
              "type": "uint256"
            },
            {
              "internalType": "address",
              "name": "sender",
              "type": "address"
            },
            {
              "internalType": "address",
              "name": "recipient",
              "type": "address"
            },
            {
              "internalType": "uint256",
              "name": "amount",
              "type": "uint256"
            },
            {
              "internalType": "string",
              "name": "message",
              "type": "string"
            },
            {
              "internalType": "uint256",
              "name": "timestamp",
              "type": "uint256"
            },
            {
              "internalType": "bytes32",
              "name": "dataHash",
              "type": "bytes32"
            }
          ],
          "internalType": "struct DataStorage.DataRecord",
          "name": "",
          "type": "tuple"
        }
      ],
      "stateMutability": "view",
      "type": "function"
    },
    {
      "inputs": [
        {
          "internalType": "address",
          "name": "_user",
          "type": "address"
        }
      ],
      "name": "getUserRecords",
      "outputs": [
        {
          "internalType": "uint256[]",
          "name": "",
          "type": "uint256[]"
        }
      ],
      "stateMutability": "view",
      "type": "function"
    },
    {
      "inputs": [],
      "name": "getTotalRecords",
      "outputs": [
        {
          "internalType": "uint256",
          "name": "",
          "type": "uint256"
        }
      ],
      "stateMutability": "view",
      "type": "function"
    },
    {
      "inputs": [
        {
          "internalType": "uint256",
          "name": "_limit",
          "type": "uint256"
        }
      ],
      "name": "getRecentRecords",
      "outputs": [
        {
          "components": [
            {
              "internalType": "uint256",
              "name": "id",
              "type": "uint256"
            },
            {
              "internalType": "address",
              "name": "sender",
              "type": "address"
            },
            {
              "internalType": "address",
              "name": "recipient",
              "type": "address"
            },
            {
              "internalType": "uint256",
              "name": "amount",
              "type": "uint256"
            },
            {
              "internalType": "string",
              "name": "message",
              "type": "string"
            },
            {
              "internalType": "uint256",
              "name": "timestamp",
              "type": "uint256"
            },
            {
              "internalType": "bytes32",
              "name": "dataHash",
              "type": "bytes32"
            }
          ],
          "internalType": "struct DataStorage.DataRecord[]",
          "name": "",
          "type": "tuple[]"
        }
      ],
      "stateMutability": "view",
      "type": "function"
    },
    {
      "inputs": [],
      "name": "emergencyWithdraw",
      "outputs": [],
      "stateMutability": "nonpayable",
      "type": "function"
    }
  ],
  "bytecode": "0x608060405234801561001057600080fd5b50338061003757604051631e4fbdf760e01b81526000600482015260240160405180910390fd5b6100408161004f565b5060018055600060025561009f565b600080546001600160a01b038381166001600160a01b0319831681178455604051919092169283917f8be0079c531659141344cd1fd0a4f28419497f9722a3daafe3b4186f6b6457e09190a35050565b611ba6806100ae6000396000f3fe6080604052600436106100e15760003560e01c80638ea768fe1161007f578063db2e21bc11610059578063db2e21bc146102a1578063e85d28b9146102b6578063f2fde38b146102d6578063f50817e8146102f657600080fd5b80638ea768fe1461023b578063bcd5d7431461027b578063d242d7af1461028e57600080fd5b806351096b02116100bb57806351096b02146101af578063715018a6146101dc5780637f949386146101f35780638da5cb5b1461021357600080fd5b806303e9e609146101275780630aeacb5e1461015d578063344610671461017c57600080fd5b36610122576040805134815242602082015233917f1d57945c1033a96907a78f6e0ebf6a03815725dac25f33cc806558670344ac88910160405180910390a2005b600080fd5b34801561013357600080fd5b50610147610142366004611372565b610323565b6040516101549190611446565b60405180910390f35b34801561016957600080fd5b506002545b604051908152602001610154565b34801561018857600080fd5b5061019c610197366004611372565b6104bb565b6040516101549796959493929190611460565b3480156101bb57600080fd5b506101cf6101ca3660046114cb565b61058e565b60405161015491906114e6565b3480156101e857600080fd5b506101f16105fa565b005b3480156101ff57600080fd5b506101f161020e3660046115e1565b61060e565b34801561021f57600080fd5b506000546040516001600160a01b039091168152602001610154565b34801561024757600080fd5b5061026b610256366004611372565b60056020526000908152604090205460ff1681565b6040519015158152602001610154565b6101f1610289366004611737565b610754565b6101f161029c36600461181b565b610d1f565b3480156102ad57600080fd5b506101f1610fe8565b3480156102c257600080fd5b5061016e6102d1366004611853565b611070565b3480156102e257600080fd5b506101f16102f13660046114cb565b6110a1565b34801561030257600080fd5b50610316610311366004611372565b6110df565b604051610154919061187d565b6040805160e0810182526000808252602082018190529181018290526060808201839052608082015260a0810182905260c08101919091528160008111801561036e57506002548111155b6103b75760405162461bcd60e51b8152602060048201526015602482015274149958dbdc9908191bd95cc81b9bdd08195e1a5cdd605a1b60448201526064015b60405180910390fd5b600083815260036020818152604092839020835160e0810185528154815260018201546001600160a01b039081169382019390935260028201549092169382019390935290820154606082015260048201805491929160808401919061041c906118df565b80601f0160208091040260200160405190810160405280929190818152602001828054610448906118df565b80156104955780601f1061046a57610100808354040283529160200191610495565b820191906000526020600020905b81548152906001019060200180831161047857829003601f168201915b505050505081526020016005820154815260200160068201548152505091505b50919050565b60036020819052600091825260409091208054600182015460028301549383015460048401805493956001600160a01b03938416959316939192916104ff906118df565b80601f016020809104026020016040519081016040528092919081815260200182805461052b906118df565b80156105785780601f1061054d57610100808354040283529160200191610578565b820191906000526020600020905b81548152906001019060200180831161055b57829003601f168201915b5050505050908060050154908060060154905087565b6001600160a01b0381166000908152600460209081526040918290208054835181840281018401909452808452606093928301828280156105ee57602002820191906000526020600020905b8154815260200190600101908083116105da575b50505050509050919050565b6106026112cb565b61060c60006112f8565b565b8160008111801561062157506002548111155b6106655760405162461bcd60e51b8152602060048201526015602482015274149958dbdc9908191bd95cc81b9bdd08195e1a5cdd605a1b60448201526064016103ae565b6000838152600360205260409020600101546001600160a01b031633146106ce5760405162461bcd60e51b815260206004820152601e60248201527f4f6e6c792073656e6465722063616e20757064617465206d657373616765000060448201526064016103ae565b60008251116106ef5760405162461bcd60e51b81526004016103ae90611913565b600083815260036020526040902060040161070a8382611998565b50336001600160a01b0316837ff459039830354479f65726f6b3171a4bb3ff5e98edc3bae5ee8578a3bd9732cb8442604051610747929190611a58565b60405180910390a3505050565b61075c611348565b8151835114801561076e575080518251145b6107b35760405162461bcd60e51b8152602060048201526016602482015275082e4e4c2f2e640d8cadccee8d040dad2e6dac2e8c6d60531b60448201526064016103ae565b60008351116107f35760405162461bcd60e51b815260206004820152600c60248201526b456d7074792061727261797360a01b60448201526064016103ae565b6000805b83518110156108395783818151811061081257610812611a7a565b6020026020010151826108259190611aa6565b91508061083181611abf565b9150506107f7565b50803410156108825760405162461bcd60e51b8152602060048201526015602482015274125b9cdd59999a58da595b9d08115512081cd95b9d605a1b60448201526064016103ae565b60005b8451811015610ccf5760006001600160a01b03168582815181106108ab576108ab611a7a565b60200260200101516001600160a01b0316036109095760405162461bcd60e51b815260206004820152601960248201527f496e76616c696420726563697069656e7420616464726573730000000000000060448201526064016103ae565b600083828151811061091d5761091d611a7a565b602002602001015151116109435760405162461bcd60e51b81526004016103ae90611913565b6002805490600061095383611abf565b919050555060003386838151811061096d5761096d611a7a565b602002602001015186848151811061098757610987611a7a565b60200260200101518685815181106109a1576109a1611a7a565b6020026020010151426002546040516020016109c296959493929190611ad8565b60405160208183030381529060405280519060200120905060006040518060e001604052806002548152602001336001600160a01b03168152602001888581518110610a1057610a10611a7a565b60200260200101516001600160a01b03168152602001878581518110610a3857610a38611a7a565b60200260200101518152602001868581518110610a5757610a57611a7a565b60209081029190910181015182524282820152604091820185905260028054600090815260038084529084902085518155928501516001840180546001600160a01b03199081166001600160a01b0393841617909155948601519284018054909516921691909117909255606083015191810191909155608082015191925082916004820190610ae79082611998565b5060a0820151600582015560c0909101516006909101553360009081526004602081815260408320600254815460018101835591855291842001558851909190899086908110610b3957610b39611a7a565b6020908102919091018101516001600160a01b03168252818101929092526040908101600090812060025481546001818101845592845285842001558582526005909352908120805460ff19169092179091558651879085908110610ba057610ba0611a7a565b60200260200101511115610c1b57868381518110610bc057610bc0611a7a565b60200260200101516001600160a01b03166108fc878581518110610be657610be6611a7a565b60200260200101519081150290604051600060405180830381858888f19350505050158015610c19573d6000803e3d6000fd5b505b868381518110610c2d57610c2d611a7a565b60200260200101516001600160a01b0316336001600160a01b03166002547fb869cfae0e16e6f1028fcea52c8c386340549c60d3f5b0bd1f94cbe359d0c787898781518110610c7e57610c7e611a7a565b6020026020010151898881518110610c9857610c98611a7a565b60200260200101518742604051610cb29493929190611b31565b60405180910390a450508080610cc790611abf565b915050610885565b5080341115610d1057336108fc610ce68334611b5d565b6040518115909202916000818181858888f19350505050158015610d0e573d6000803e3d6000fd5b505b50610d1a60018055565b505050565b816001600160a01b038116610d685760405162461bcd60e51b815260206004820152600f60248201526e496e76616c6964206164647265737360881b60448201526064016103ae565b610d70611348565b6000825111610d915760405162461bcd60e51b81526004016103ae90611913565b60028054906000610da183611abf565b919050555060003384348542600254604051602001610dc596959493929190611ad8565b60408051601f1981840301815291815281516020928301206000818152600590935291205490915060ff1615610e2e5760405162461bcd60e51b815260206004820152600e60248201526d4475706c6963617465206461746160901b60448201526064016103ae565b6040805160e081018252600280548083523360208085019182526001600160a01b038a81168688019081523460608801908152608088018c81524260a08a015260c089018b90526000968752600394859052989095208751815593516001850180549184166001600160a01b031992831617905590519584018054969092169516949094179093559051918101919091559151909182916004820190610ed49082611998565b5060a082015160058083019190915560c0909201516006909101553360009081526004602090815260408083206002805482546001818101855593875285872001556001600160a01b038b16855282852090548154808401835591865284862090910155868452939091529020805460ff191690911790553415610f89576040516001600160a01b038616903480156108fc02916000818181858888f19350505050158015610f87573d6000803e3d6000fd5b505b846001600160a01b0316336001600160a01b03166002547fb869cfae0e16e6f1028fcea52c8c386340549c60d3f5b0bd1f94cbe359d0c78734888742604051610fd59493929190611b31565b60405180910390a45050610d1a60018055565b610ff06112cb565b47806110335760405162461bcd60e51b81526020600482015260126024820152714e6f2045544820746f20776974686472617760701b60448201526064016103ae565b600080546040516001600160a01b039091169183156108fc02918491818181858888f1935050505015801561106c573d6000803e3d6000fd5b5050565b6004602052816000526040600020818154811061108c57600080fd5b90600052602060002001600091509150505481565b6110a96112cb565b6001600160a01b0381166110d357604051631e4fbdf760e01b8152600060048201526024016103ae565b6110dc816112f8565b50565b6060600060025483116110f257826110f6565b6002545b905060008167ffffffffffffffff8111156111135761111361152a565b60405190808252806020026020018201604052801561117957816020015b6040805160e081018252600080825260208083018290529282018190526060808301829052608083015260a0820181905260c082015282526000199092019101816111315790505b50905060005b828110156112c35760036000826002546111999190611b5d565b81526020808201929092526040908101600020815160e0810183528154815260018201546001600160a01b0390811694820194909452600282015490931691830191909152600381015460608301526004810180546080840191906111fd906118df565b80601f0160208091040260200160405190810160405280929190818152602001828054611229906118df565b80156112765780601f1061124b57610100808354040283529160200191611276565b820191906000526020600020905b81548152906001019060200180831161125957829003601f168201915b50505050508152602001600582015481526020016006820154815250508282815181106112a5576112a5611a7a565b602002602001018190525080806112bb90611abf565b91505061117f565b509392505050565b6000546001600160a01b0316331461060c5760405163118cdaa760e01b81523360048201526024016103ae565b600080546001600160a01b038381166001600160a01b0319831681178455604051919092169283917f8be0079c531659141344cd1fd0a4f28419497f9722a3daafe3b4186f6b6457e09190a35050565b60026001540361136b57604051633ee5aeb560e01b815260040160405180910390fd5b6002600155565b60006020828403121561138457600080fd5b5035919050565b60005b838110156113a657818101518382015260200161138e565b50506000910152565b600081518084526113c781602086016020860161138b565b601f01601f19169290920160200192915050565b805182526000602082015160018060a01b038082166020860152806040850151166040860152505060608201516060840152608082015160e0608085015261142660e08501826113af565b905060a083015160a085015260c083015160c08501528091505092915050565b60208152600061145960208301846113db565b9392505050565b8781526001600160a01b038781166020830152861660408201526060810185905260e060808201819052600090611499908301866113af565b60a08301949094525060c0015295945050505050565b80356001600160a01b03811681146114c657600080fd5b919050565b6000602082840312156114dd57600080fd5b611459826114af565b6020808252825182820181905260009190848201906040850190845b8181101561151e57835183529284019291840191600101611502565b50909695505050505050565b634e487b7160e01b600052604160045260246000fd5b604051601f8201601f1916810167ffffffffffffffff811182821017156115695761156961152a565b604052919050565b600082601f83011261158257600080fd5b813567ffffffffffffffff81111561159c5761159c61152a565b6115af601f8201601f1916602001611540565b8181528460208386010111156115c457600080fd5b816020850160208301376000918101602001919091529392505050565b600080604083850312156115f457600080fd5b82359150602083013567ffffffffffffffff81111561161257600080fd5b61161e85828601611571565b9150509250929050565b600067ffffffffffffffff8211156116425761164261152a565b5060051b60200190565b600082601f83011261165d57600080fd5b8135602061167261166d83611628565b611540565b82815260059290921b8401810191818101908684111561169157600080fd5b8286015b848110156116ac5780358352918301918301611695565b509695505050505050565b600082601f8301126116c857600080fd5b813560206116d861166d83611628565b82815260059290921b840181019181810190868411156116f757600080fd5b8286015b848110156116ac57803567ffffffffffffffff81111561171b5760008081fd5b6117298986838b0101611571565b8452509183019183016116fb565b60008060006060848603121561174c57600080fd5b833567ffffffffffffffff8082111561176457600080fd5b818601915086601f83011261177857600080fd5b8135602061178861166d83611628565b82815260059290921b8401810191818101908a8411156117a757600080fd5b948201945b838610156117cc576117bd866114af565b825294820194908201906117ac565b975050870135925050808211156117e257600080fd5b6117ee8783880161164c565b9350604086013591508082111561180457600080fd5b50611811868287016116b7565b9150509250925092565b6000806040838503121561182e57600080fd5b611837836114af565b9150602083013567ffffffffffffffff81111561161257600080fd5b6000806040838503121561186657600080fd5b61186f836114af565b946020939093013593505050565b6000602080830181845280855180835260408601915060408160051b870101925083870160005b828110156118d257603f198886030184526118c08583516113db565b945092850192908501906001016118a4565b5092979650505050505050565b600181811c908216806118f357607f821691505b6020821081036104b557634e487b7160e01b600052602260045260246000fd5b60208082526017908201527f4d6573736167652063616e6e6f7420626520656d707479000000000000000000604082015260600190565b601f821115610d1a57600081815260208120601f850160051c810160208610156119715750805b601f850160051c820191505b818110156119905782815560010161197d565b505050505050565b815167ffffffffffffffff8111156119b2576119b261152a565b6119c6816119c084546118df565b8461194a565b602080601f8311600181146119fb57600084156119e35750858301515b600019600386901b1c1916600185901b178555611990565b600085815260208120601f198616915b82811015611a2a57888601518255948401946001909101908401611a0b565b5085821015611a485787850151600019600388901b60f8161c191681555b5050505050600190811b01905550565b604081526000611a6b60408301856113af565b90508260208301529392505050565b634e487b7160e01b600052603260045260246000fd5b634e487b7160e01b600052601160045260246000fd5b80820180821115611ab957611ab9611a90565b92915050565b600060018201611ad157611ad1611a90565b5060010190565b60006bffffffffffffffffffffffff19808960601b168352808860601b166014840152508560288301528451611b1581604885016020890161138b565b9091016048810193909352506068820152608801949350505050565b848152608060208201526000611b4a60808301866113af565b6040830194909452506060015292915050565b81810381811115611ab957611ab9611a9056fea2646970667358221220917542ca6de399dc53354678748b49dabcd0b98a6360741df231c3a56930177464736f6c63430008150033",
  "immutableReferences": {},
  "source": "// SPDX-License-Identifier: MIT\npragma solidity ^0.8.20;\n\nimport \"@openzeppelin/contracts/access/Ownable.sol\";\nimport \"@openzeppelin/contracts/utils/ReentrancyGuard.sol\";\n\n/**\n * @title DataStorage\n * @dev \n */\ncontract DataStorage is Ownable, ReentrancyGuard {\n    \n    // \n    struct DataRecord {\n        uint256 id;\n        address sender;\n        address recipient;\n        uint256 amount;\n        string message;\n        uint256 timestamp;\n        bytes32 dataHash;\n    }\n    \n    // \n    uint256 private _recordCounter;\n    mapping(uint256 => DataRecord) public records;\n    mapping(address => uint256[]) public userRecords;\n    mapping(bytes32 => bool) public dataHashes;\n    \n    // \n    event DataStored(\n        uint256 indexed recordId,\n        address indexed sender,\n        address indexed recipient,\n        uint256 amount,\n        string message,\n        bytes32 dataHash,\n        uint256 timestamp\n    );\n    \n    event EtherReceived(\n        address indexed sender,\n        uint256 amount,\n        uint256 timestamp\n    );\n    \n    event DataUpdated(\n        uint256 indexed recordId,\n        address indexed updater,\n        string newMessage,\n        uint256 timestamp\n    );\n    \n    // \n    modifier validAddress(address _addr) {\n        require(_addr != address(0), \"Invalid address\");\n        _;\n    }\n    \n    modifier recordExists(uint256 _recordId) {\n        require(_recordId > 0 && _recordId <= _recordCounter, \"Record does not exist\");\n        _;\n    }\n    \n    constructor() Ownable(msg.sender) {\n        _recordCounter = 0;\n    }\n    \n    /**\n     * @dev \n     * @param _recipient \n     * @param _message \n     */\n    function storeData(\n        address _recipient,\n        string memory _message\n    ) external payable validAddress(_recipient) nonReentrant {\n        require(bytes(_message).length > 0, \"Message cannot be empty\");\n        \n        _recordCounter++;\n        bytes32 dataHash = keccak256(abi.encodePacked(\n            msg.sender,\n            _recipient,\n            msg.value,\n            _message,\n            block.timestamp,\n            _recordCounter\n        ));\n        \n        // \n        require(!dataHashes[dataHash], \"Duplicate data\");\n        \n        DataRecord memory newRecord = DataRecord({\n            id: _recordCounter,\n            sender: msg.sender,\n            recipient: _recipient,\n            amount: msg.value,\n            message: _message,\n            timestamp: block.timestamp,\n            dataHash: dataHash\n        });\n        \n        records[_recordCounter] = newRecord;\n        userRecords[msg.sender].push(_recordCounter);\n        userRecords[_recipient].push(_recordCounter);\n        dataHashes[dataHash] = true;\n        \n        //  ETH \n        if (msg.value > 0) {\n            payable(_recipient).transfer(msg.value);\n        }\n        \n        emit DataStored(\n            _recordCounter,\n            msg.sender,\n            _recipient,\n            msg.value,\n            _message,\n            dataHash,\n            block.timestamp\n        );\n    }\n    \n    /**\n     * @dev \n     * @param _recipients \n     * @param _amounts \n     * @param _messages \n     */\n    function batchStoreData(\n        address[] memory _recipients,\n        uint256[] memory _amounts,\n        string[] memory _messages\n    ) external payable nonReentrant {\n        require(\n            _recipients.length == _amounts.length && \n            _amounts.length == _messages.length,\n            \"Arrays length mismatch\"\n        );\n        require(_recipients.length > 0, \"Empty arrays\");\n        \n        uint256 totalAmount = 0;\n        for (uint256 i = 0; i < _amounts.length; i++) {\n            totalAmount += _amounts[i];\n        }\n        require(msg.value >= totalAmount, \"Insufficient ETH sent\");\n        \n        for (uint256 i = 0; i < _recipients.length; i++) {\n            require(_recipients[i] != address(0), \"Invalid recipient address\");\n            require(bytes(_messages[i]).length > 0, \"Message cannot be empty\");\n            \n            _recordCounter++;\n            bytes32 dataHash = keccak256(abi.encodePacked(\n                msg.sender,\n                _recipients[i],\n                _amounts[i],\n                _messages[i],\n                block.timestamp,\n                _recordCounter\n            ));\n            \n            DataRecord memory newRecord = DataRecord({\n                id: _recordCounter,\n                sender: msg.sender,\n                recipient: _recipients[i],\n                amount: _amounts[i],\n                message: _messages[i],\n                timestamp: block.timestamp,\n                dataHash: dataHash\n            });\n            \n            records[_recordCounter] = newRecord;\n            userRecords[msg.sender].push(_recordCounter);\n            userRecords[_recipients[i]].push(_recordCounter);\n            dataHashes[dataHash] = true;\n            \n            if (_amounts[i] > 0) {\n                payable(_recipients[i]).transfer(_amounts[i]);\n            }\n            \n            emit DataStored(\n                _recordCounter,\n                msg.sender,\n                _recipients[i],\n                _amounts[i],\n                _messages[i],\n                dataHash,\n                block.timestamp\n            );\n        }\n        \n        //  ETH\n        if (msg.value > totalAmount) {\n            payable(msg.sender).transfer(msg.value - totalAmount);\n        }\n    }\n    \n    /**\n     * @dev \n     * @param _recordId ID\n     * @param _newMessage \n     */\n    function updateMessage(\n        uint256 _recordId,\n        string memory _newMessage\n    ) external recordExists(_recordId) {\n        require(\n            records[_recordId].sender == msg.sender,\n            \"Only sender can update message\"\n        );\n        require(bytes(_newMessage).length > 0, \"Message cannot be empty\");\n        \n        records[_recordId].message = _newMessage;\n        \n        emit DataUpdated(_recordId, msg.sender, _newMessage, block.timestamp);\n    }\n    \n    /**\n     * @dev \n     * @param _recordId ID\n     */\n    function getRecord(uint256 _recordId) \n        external \n        view \n        recordExists(_recordId) \n        returns (DataRecord memory) \n    {\n        return records[_recordId];\n    }\n    \n    /**\n     * @dev ID\n     * @param _user \n     */\n    function getUserRecords(address _user) \n        external \n        view \n        returns (uint256[] memory) \n    {\n        return userRecords[_user];\n    }\n    \n    /**\n     * @dev \n     */\n    function getTotalRecords() external view returns (uint256) {\n        return _recordCounter;\n    }\n    \n    /**\n     * @dev \n     * @param _limit \n     */\n    function getRecentRecords(uint256 _limit) \n        external \n        view \n        returns (DataRecord[] memory) \n    {\n        uint256 limit = _limit > _recordCounter ? _recordCounter : _limit;\n        DataRecord[] memory recentRecords = new DataRecord[](limit);\n        \n        for (uint256 i = 0; i < limit; i++) {\n            recentRecords[i] = records[_recordCounter - i];\n        }\n        \n        return recentRecords;\n    }\n    \n    /**\n     * @dev  ETH \n     */\n    receive() external payable {\n        emit EtherReceived(msg.sender, msg.value, block.timestamp);\n    }\n    \n    /**\n     * @dev  ETH\n     */\n    function emergencyWithdraw() external onlyOwner {\n        uint256 balance = address(this).balance;\n        require(balance > 0, \"No ETH to withdraw\");\n        payable(owner()).transfer(balance);\n    }\n}\n",
  "sourcePath": "/Users/hewei/Documents/web3/blockchainData/contracts/contracts/DataStorage.sol",
  "compiler": {
    "name": "solc",
    "version": "0.8.21+commit.d9974bed.Emscripten.clang"
  },
  "schemaVersion": "3.4.16",
  "updatedAt": "2025-08-24T08:31:49.931Z",
  "devdoc": {
    "details": "",
    "errors": {
      "OwnableInvalidOwner(address)": [
        {
          "details": "The owner is not a valid owner account. (eg. `address(0)`)"
        }
      ],
      "OwnableUnauthorizedAccount(address)": [
        {
          "details": "The caller account is not authorized to perform an operation."
        }
      ],
      "ReentrancyGuardReentrantCall()": [
        {
          "details": "Unauthorized reentrant call."
        }
      ]
    },
    "kind": "dev",
    "methods": {
      "batchStoreData(address[],uint256[],string[])": {
        "details": "",
        "params": {
          "_amounts": "",
          "_messages": "",
          "_recipients": ""
        }
      },
      "emergencyWithdraw()": {
        "details": " ETH"
      },
      "getRecentRecords(uint256)": {
        "details": "",
        "params": {
          "_limit": ""
        }
      },
      "getRecord(uint256)": {
        "details": "",
        "params": {
          "_recordId": "ID"
        }
      },
      "getTotalRecords()": {
        "details": ""
      },
      "getUserRecords(address)": {
        "details": "ID",
        "params": {
          "_user": ""
        }
      },
      "owner()": {
        "details": "Returns the address of the current owner."
      },
      "renounceOwnership()": {
        "details": "Leaves the contract without owner. It will not be possible to call `onlyOwner` functions. Can only be called by the current owner. NOTE: Renouncing ownership will leave the contract without an owner, thereby disabling any functionality that is only available to the owner."
      },
      "storeData(address,string)": {
        "details": "",
        "params": {
          "_message": "",
          "_recipient": ""
        }
      },
      "transferOwnership(address)": {
        "details": "Transfers ownership of the contract to a new account (`newOwner`). Can only be called by the current owner."
      },
      "updateMessage(uint256,string)": {
        "details": "",
        "params": {
          "_newMessage": "",
          "_recordId": "ID"
        }
      }
    },
    "title": "DataStorage",
    "version": 1
  },
  "userdoc": {
    "kind": "user",
    "methods": {},
    "version": 1
  }
}